:020000040800F2
:10000000D84D002061020008D31300082310000817
:10001000D11300087D0500084D16000800000000FF
:10002000000000000000000000000000A101000826
:100030007F05000800000000FD010008D51300083E
:100040007B0200087B0200087B0200087B0200089C
:100050007B0200087B0200087B0200087B0200088C
:100060007B0200087B0200087B0200087B0200087C
:100070007B0200087B0200087B0200087B0200086C
:100080007B0200087B0200087B0200087B0200085C
:100090007B0200087B0200087B0200087B0200084C
:1000A0007B0200087B0200087B0200087B0200083C
:1000B0007B0200087B0200087B0200087B0200082C
:1000C0007B0200087B0200087B0200087B0200081C
:1000D0007B0200087B0200087B0200087B0200080C
:1000E0007B0200087B0200087B0200087B020008FC
:1000F0007B0200087B0200087B0200087B020008EC
:100100007B0200087B0200087B0200087B020008DB
:100110007B0200087B0200087B020008B51400087F
:100120007B0200087B0200087B0200087B020008BB
:100130007B0200087B0200087B0200087B020008AB
:100140007B0200087B0200087B0200087B0200089B
:100150007B0200087B0200087B0200087B0200088B
:100160007B0200087B0200087B0200087B0200087B
:100170007B0200087B0200087B02000800000000F0
:100180007B0200087B020008DFF810D000F0E4F9E1
:10019000004800478D160008AFF30080D84D0020BE
:1001A0002C4B19680868B0E8F04F80F30988BFF35A
:1001B0006F8F4FF0000080F311887047000000003F
:1001C00008480068006880F308884FF0000080F35A
:1001D000148862B661B6BFF34F8FBFF36F8F00DF35
:1001E00000BF00BF08ED00E0DFF80C00016841F43B
:1001F00070010160704700BF88ED00E0EFF30980F7
:10020000BFF36F8F134B1A681EF0100F08BF20ED5D
:10021000108A20E9F04F106009B44FF0500080F3CD
:100220001188BFF34F8FBFF36F8F02F0E1FA4FF0E9
:10023000000080F3118809BC19680868B0E8F04F25
:100240001EF0100F08BFB0EC108A80F30988BFF3CE
:100250006F8F704748000020EFF305807047000063
:100260000648804706480047FEE7FEE7FEE7FEE750
:10027000FEE7FEE7FEE7FEE7FEE7FEE7991400086B
:10028000890100082DE9F05F0546002092469B4653
:1002900088460646814640241BE02846414647469C
:1002A000224600F0EBF853465A46C01A914110D34B
:1002B00011461846224600F0D2F82D1A67EB0108C5
:1002C0004F4622460120002100F0C9F817EB000933
:1002D0004E41201EA4F10104DFDC484631462A4687
:1002E0004346BDE8F09F40EA01039B0703D009E0C5
:1002F00008C9121F08C0042AFAD203E011F8013B12
:1003000000F8013B521EF9D27047D2B201E000F86A
:10031000012B491EFBD270470022F6E710B51346A9
:100320000A4604461946FFF7F0FF204610BD2DE9A6
:10033000FE4F81EA030404F0004421F000410094E0
:100340004FF0000B23F0004350EA01045ED052EA64
:1003500003045BD0C3F30A54C1F30A552C44A4F23E
:10036000F3340194A0FB0254C1F3130141F4801152
:10037000C3F3130343F4801301FB024400FB034E59
:10038000840A970A44EA815447EA8357A4FB076822
:1003900002958D0A05FB07854FEA932C04FB0C544C
:1003A0002705029D4FEA065847EA1637B5EB0805C0
:1003B0006EEB070C870E920E47EA811742EA831212
:1003C000A7FB0201B6EB0B0164EB00042B0D43EA23
:1003D0000C335E1844EB1C50DA465146E7FB020131
:1003E000C5F313044FEA0B3343EA14534FEA0432C4
:1003F000019C43EA0603A4F10C040294009CCDE99D
:1004000000B400F05AF803B0BDE8F08F00200146B8
:10041000F9E70EB540F2334102910021CDE9001118
:100420000A460B4600F049F803B000BDC1F30A527A
:1004300010B5C1F3130140F2FF3341F480119A4229
:1004400001DA002010BD40F233439A42A2F2334257
:1004500003DC524200F012F810BD904010BD202A7B
:1004600004DB203A00FA02F1002070479140C2F10B
:10047000200320FA03F3194390407047202A04DB3D
:10048000203A21FA02F00021704721FA02F3D0400D
:10049000C2F12002914008431946704710B5141E5E
:1004A00073F1000408DA401C41F1000192185B412D
:1004B0001A4301D120F0010010BD2DE9F04D924604
:1004C0009B4611B1B1FA81F202E0B0FA80F220321B
:1004D0009046FFF7C4FF04460F4640EA0A0041EA8F
:1004E0000B0153465A46084313D0114653EA010004
:1004F00019D0C8F140025046FFF7C0FF05460E462E
:10050000504659464246FFF7AAFF084305D001204E
:1005100004E020463946BDE8F08D0020054346EA58
:10052000E0762C4337430A986305E40AA0EB080001
:100530000022FD0A44EA47540A3002D50020014651
:10054000E9E7010510196941DDE90845001969412C
:10055000BDE8F04DA2E70000064C074D06E0E0685C
:1005600040F0010394E8070098471034AC42F6D3FA
:10057000FFF70EFE0837000828370008FEE770472F
:1005800070B5044600F0F6F80546601C02D0044839
:100590000078044400F0EEF8401BA042FAD370BD8E
:1005A000380000202DE9F84F00224FF00108032504
:1005B0004FF00F0E0B6808FA02F42340A3426ED1ED
:1005C0004E68012E05D0022E03D0112E01D0122E1E
:1005D00012D186684FEA420C05FA0CF7BE43CF6889
:1005E00007FA0CF7374387604668A6430C79C4F3D3
:1005F0000014944034434460C668570005FA07FC71
:100600008C6826EA0C06BC403443C4604C68022C5B
:1006100001D0122C13D1D40800EB8404A346D4F8E3
:10062000209054074FEAD46A0EFA0AF629EA06091E
:100630000E6906FA0AF646EA0906CBF82060066853
:100640000C7926EA0C0604F00304BC403443046031
:100650004C68E40065D5364C266846F48046266032
:10066000246822F0030604F480440094314C34449E
:10067000A446D4F808489607370F0EFA07F6B44395
:100680002D4EB04201D1002624E02C4EB04201D1C3
:1006900001261FE02A4EB04202D102261AE040E0B5
:1006A000284EB04201D1032614E0274EB04201D1BA
:1006B00004260FE0254EB04201D105260AE0244E63
:1006C000B04201D1062605E0224EB04201D10726F4
:1006D00000E00826BE402643CCF808681E4E346869
:1006E0004F689C43FF0300D51C4334601A4C241D03
:1006F00026684F689E43BF0300D51E432660164EF2
:10070000083634684F689C43FF0200D51C433460B0
:10071000114E0C3634684F689C43BF0200D51C4311
:100720003460521C102AFFF445AFBDE8F88F00007A
:100730004438024000300140000002400004024002
:1007400000080240000C0240001002400014024069
:1007500000180240001C0240003C0140426931EA9E
:10076000020200D10904816170470AB181617047BA
:100770000904FBE70148806870470000380000204A
:100780000248816802781144816070473800002077
:100790000B4810B5016841F400710160016841F433
:1007A00080610160016841F480710160032000F004
:1007B0008DF8002000F006F800F03EF8002010BD93
:1007C000003C024010B5014688B00022372000F0FE
:1007D0005DF8372000F04CF813480024016841F020
:1007E00020010160006805A900F02000069068461D
:1007F00000F018F900F036F90C494000B0FBF1F1B7
:100800000C480B4A491E026040F2E732C0E903245B
:10081000C0E9011400F016FB10B1012008B010BDB2
:10082000044800F02BFBF9E74038024040420F003B
:1008300000140040C00000200C4882B0016841F460
:1008400080410160006800F4804000900748001F6C
:10085000016841F0805101600068002200F0805082
:1008600000900F21901E02B000F010B844380240F2
:10087000002809DB00F01F0201219140400980009F
:1008800000F1E020C0F8001170470000F0B40E4BFA
:100890001B680C46C3F30223C3F10705042D00D9DE
:1008A0000425191D072901D2002300E0DB1E0126C3
:1008B00006FA05F1491E214099409E40761E1640D9
:1008C0003143F0BC00F0C3BE0CED00E0064900F07F
:1008D000070208684FF6FF03184040EA0220034A67
:1008E00010430860704700000CED00E00000FA05BE
:1008F0002DE9F0470E46050065D0DFF81481D8F8E1
:100900000000F7B200F00F00B04207D288F8007084
:10091000D8F8000000F00F00B04254D128683D4CD8
:10092000810712D5400703D5206840F4E0502060CD
:100930002878000703D5206840F4604020602068D4
:10094000A96820F0F000084320602878C0072DD067
:10095000304968680839012812D0022813D00328CA
:1009600011D00968890700292DDA216821F00301D7
:1009700001432160FFF7FEFE814641F2883A0EE016
:1009800009688903EFE709688901ECE7FFF7F2FEE0
:10099000A0EB0901514502D90320BDE8F08720688A
:1009A000696800F00C00B0EB810FEFD1D8F80010AF
:1009B000404601F00F01B14207D90770006800F00E
:1009C0000F00B04201D00120E7E72878400705D5A5
:1009D0002068E96820F4E050084320602878000788
:1009E00006D52068296920F4604040EAC1002060F3
:1009F00000F048F82168084AC1F30311515CC8406F
:100A00000649086006480068FFF7DCFE0020C4E7DE
:100A1000003C024008380240AC3600084400002088
:100A20003C0000200F2202600C4A136803F003030D
:100A30004360136803F0F0038360136803F4E0532A
:100A4000C36012684FF4E05303EAD2020261044823
:100A5000006800F00F00086070470000083802408E
:100A6000003C02400448054900680968044AC1F393
:100A70008221515CC8407047440000200838024081
:100A8000BC360008154810B5006810F00C02144878
:100A900013D04110042A0FD0082A0ED10F4C241F66
:100AA0002268236802F03F025B0207D52068C0F38A
:100AB0008810A0FB010106E0084610BD2168C1F3C3
:100AC0008811A1FB00010023FFF7DCFB2168C1F3C3
:100AD0000141491C4900B0FBF1F010BD083802404B
:100AE0000024F4002DE9F84F04006ED02078DFF8E0
:100AF0003C93C007A9F104054AD009F1040001683C
:100B0000C1F38101012908D00068C0F381000228E7
:100B10000AD1D9F80000400206D52868800337D5ED
:100B200060680028E1D033E06068B0F5803F10D005
:100B3000B0F5A02F286810D020F4803028602868F5
:100B400020F4802028606068A8B1FFF713FE0646F5
:100B50000DE0286840F48030F4E740F480202860FD
:100B6000F7E700BFFFF706FE801B642873D82868EC
:100B70008003F7D50CE0FFF7FDFD064605E000BF5A
:100B8000FFF7F8FD801B6428F0D828688003F7D4AD
:100B90002078DFF89C8280074FF0000A3ED5A348FA
:100BA000001D016811F00C0F08D00068C0F381002F
:100BB00002280BD1D9F80000400207D4286880072A
:100BC00016D5E068012800D112E02BE1E068B8B149
:100BD0000120C8F80000FFF7CDFD064605E000BF84
:100BE000FFF7C8FD801B0228C0D828688007F7D50A
:100BF0002868216920F0F80040EAC10028600DE073
:100C0000C8F800A0FFF7B6FD064604E0FFF7B2FD06
:100C1000801B02281FD828688007F7D42078000797
:100C200022D5824E83486169703671B1012101601D
:100C3000FFF7A0FD074604E0FFF79CFDC01B02285C
:100C400009D830688007F7D50EE0C0F800A0FFF79C
:100C500091FD074605E082E0FFF78CFDC01B0228EE
:100C60007DD830688007F7D42078400768D5DFF852
:100C7000BCB100270BF13C0BDBF80000C0000BD42B
:100C8000DBF8001041F08051CBF80010DBF80000D9
:100C9000012700F080500090674E3068C00510D4E6
:100CA000306840F480703060FFF764FD009005E02C
:100CB000FFF760FD0099401A022850D83068C0053F
:100CC000F6D55A4EA0686C3601280FD0052830683A
:100CD00010D020F001003060306820F00400306057
:100CE000A068B8B1FFF746FD00900FE0306840F013
:100CF0000100F4E740F004003060F7E7FFF73AFD49
:100D00000099411A41F28830814266D830688007E4
:100D1000F4D50EE0FFF72EFD009007E0FFF72AFD67
:100D20000099411A41F28830814256D830688007D4
:100D3000F4D42FB1DBF8001021F08051CBF8001073
:100D4000A069C8B33949091D0968C1F381010229A5
:100D50004AD00228504607D0C8F8600000E03CE0C6
:100D6000FFF708FD04463BE04746C8F86000FFF780
:100D700001FD064605E000BFFFF7FCFC801B0228D2
:100D80002BD828688001F7D4D4E907010843A16A69
:100D90002A4A490802EB0141626A41EA821108438A
:100DA00094F82C1040EA0161C9F80010012038665F
:100DB000FFF7E0FC044606E036E000BFFFF7DAFC90
:100DC000001B022809D828688001F7D52CE000BF55
:100DD000FFF7D0FC001B022802D90320BDE8F88FE2
:100DE00028688001F4D41FE00128F7D0D9F800006A
:100DF000E26900F48001914214D1226A00F03F01BF
:100E000091420FD147F6C071626A0140914209D107
:100E1000A26A00F44031914204D1E16A00F07060AE
:100E2000884201D00120D9E70020D7E704380240EA
:100E300000004742800E4742007000400000FFFF64
:100E40007047704710B5040003D094F83D0010B10E
:100E500007E0012010BD002084F83C00204600F08F
:100E60000CF8022084F83D00211D206800F028FBCA
:100E7000012084F83D00002010BD70470168CA6859
:100E800042F00102CA600068816801F0070106298A
:100E900003D0016841F001010160002070477047F4
:100EA00070B50446006801694FF00005C943890721
:100EB00015D4C168C943890711D4E91E0161012015
:100EC0002077206880698007204602D0FFF7E7FF7F
:100ED00004E000F098F8204600F096F825772068A6
:100EE0000169C943490717D4C168C943490713D4E5
:100EF0006FF004010161022020772068806910F4FE
:100F0000407F204602D0FFF7CAFF04E000F07BF8E4
:100F1000204600F079F8257720680169C943090760
:100F200016D4C168C943090712D46FF008010161E2
:100F3000042020772068C0698007204602D0FFF790
:100F4000AEFF04E000F05FF8204600F05DF8257782
:100F500020680169C943C90617D4C168C943C906D5
:100F600013D46FF010010161082020772068C06958
:100F700010F4407F204602D0FFF791FF04E000F01C
:100F800042F8204600F040F8257720680169C943FF
:100F9000C90708D1C168C943C90704D1891E0161C5
:100FA000204600F033F820680169C943090609D4D6
:100FB000C168C943090605D46FF08001016120466C
:100FC000FFF73EFF20680169C943490609D4C1689B
:100FD000C943490605D46FF040010161204600F085
:100FE0001FF820680169C94389060BD4C168C94349
:100FF000890607D46FF0200101612046BDE87040EA
:10100000FFF71FBF70BD70477047000000680349BD
:10101000884201D1FFF7B4BB7047000000140040C4
:101020007047FEE70121022000F0E0B82DE9F04111
:1010300006AC94E8E0101E4CA061A180E28023621F
:1010400025826682A782A4F816C000F053F8022019
:1010500020702820A0701420FFF792FA032000F0DF
:1010600045F90520FFF78CFA032000F03FF9012035
:10107000FFF786FA032000F039F90120FFF780FA24
:10108000022000F033F90120FFF77AFA0F2000F078
:1010900051F9012000F04EF90320FFF771FA2820E2
:1010A00000F048F9BDE8F0410320FFF769BA0000FD
:1010B0001400002010B5094C0122E188A069FFF757
:1010C00054FB0A2000F060F80022E188A069FFF7D5
:1010D0004CFBBDE810403C2000F056B81400002046
:1010E000020003488188806900D00122FFF73DBBE0
:1010F0001400002000B587B005A96846FFF792FCF0
:101100000398A8B3FFF7AEFC5FEA4000FFF781F950
:101110009FED191B53EC112BFFF709F9FFF786F927
:1011200017490A6842F002020A6016490A6822F06A
:1011300010020A600A6822F001020A600A6822F0BE
:1011400004020A600A6842F008020A600D49283168
:10115000401E08600920091D08600A490120143159
:101160000860081F016821F00101016007B000BD9F
:10117000FFE7FFF777FCC9E78DEDB5A0F7C6B03EF6
:1011800040380240000400400949401E08600848F9
:101190001C38016821F00101016005492C390A68F9
:1011A00042F001020A600168C907FCD070470000E4
:1011B0002C04004010B5012000F0BCF8BDE8104040
:1011C0000320FFF7DDB970B50646002409E00120D1
:1011D000FFF786FF284600F017F8641CE4B2102CD5
:1011E00002D2355D002DF2D170BD0000491E01F024
:1011F0000F01012804D041F0C00000BF00F09AB8F0
:1012000041F08000FAE700002DE9F84F0209364C62
:1012100002F0080302F0040B217802F0020902F048
:10122000010700F0080A00F0040600F0020500F0D3
:101230000108009301292FD0022952D13A46218A70
:10124000206AFFF792FA4A46618A206AFFF78DFA10
:101250005A46A18A206AFFF788FAE18A009A206A32
:10126000FFF783FAFFF726FF4246218A206AFFF73D
:101270007CFA2A46618A206AFFF777FA3246A18A09
:10128000206AFFF772FA5246E18A206AFFF76DFA88
:10129000BDE8F84FFFF70EBF42462189E069FFF72E
:1012A00064FA2A466189E069FFF75FFA3246A1894C
:1012B000E069FFF75AFA5246E189E069FFF755FA0B
:1012C0003A46218A206AFFF750FA4A46618A206A24
:1012D000FFF74BFA5A46A18A206AFFF746FA009AAE
:1012E000D2E7BDE8F88F00001400002070B5054675
:1012F0000020FFF7F5FE0E4C05F00102218A206A5E
:10130000FFF733FA05F00202618A206AFFF72DFA2F
:1013100005F00402A18A206AFFF727FA05F0080207
:10132000E18A206AFFF721FABDE87040FFF7C2BEEC
:101330001400002010B504460020FFF7D1FE20461F
:10134000BDE81040FFF760BF2DE9F04186B01421E1
:101350006846FEF7E1FF1B480024016841F00201E6
:101360000160016801F002010591016841F0080186
:1013700001600068144F00F008004FF440550590DC
:10138000224629463846FFF7F0F9DFF840804FF44F
:101390007C56002231464046FFF7E7F900950125CB
:1013A000CDE90154694638460394FFF7FBF80096EF
:1013B000CDE90154694640460394FFF7F3F806B0BF
:1013C000BDE8F0813038024000040240000C0240C9
:1013D000FEE7FEE710B5502080F31188BFF34F8F72
:1013E000BFF36F8F01F048FF18B104494FF08050F0
:1013F0000860002080F3118810BD000004ED00E0BB
:1014000030B593B030216846FEF786FF14210CA852
:10141000FEF782FF1E480024016841F08051016000
:10142000006800F0805011901A48016841F4804132
:1014300001600068022500F48040119001200390B3
:1014400010200490009506950820CDE90740322031
:10145000099004200A9007200B906846FFF742FB92
:1014600008B172B6FEE70F20CDE90C054FF4C0506D
:10147000CDE90E404FF4A050109000210CA8FFF7CA
:1014800037FA002801D072B6FEE713B030BD000075
:1014900040380240007000400548016841F4700186
:1014A000016003494FF00060803908607047000018
:1014B00088ED00E00148FFF7F3BC0000C000002009
:1014C000F0B50268254C264D264E274F274B4FF08E
:1014D000804CA04209D0604507D0A84205D0B04258
:1014E00003D0B84201D0984204D122F0700E4A686D
:1014F00042EA0E02A0421BD0604519D0A84217D084
:10150000B04215D0B84213D0984211D0184DA8421D
:101510000ED0184DA8420BD0174DA84208D0174D39
:10152000A84205D0164DA84202D0164DA84203D1BC
:1015300022F44075CA682A434D6922F080022A438A
:1015400002608A68C2620A688262A04201D0984240
:1015500001D10969016301214161F0BD0000014031
:101560000004004000080040000C0040000401405E
:101570000040014000440140004801400018004084
:10158000001C004000200040134C144E4FF0FF3769
:101590004FF400554FF47A783946206900F04EF93F
:1015A00029463046FFF7DAF8C82000F0B5F829469A
:1015B0003046FFF7D3F80AA0FFF705FEFFF732FD2C
:1015C00007A0FFF700FE4046FEF7DAFFFFF7F2FD47
:1015D000E06800F0C7F9DFE700000020000C0240DF
:1015E0005461736B20320000144C154E4FF0FF37DE
:1015F0004FF480554FF4FA784FF47A793946E06821
:1016000000F01CF929463046FFF7A8F8404600F0E4
:1016100083F829463046FFF7A1F80AA0FFF7D3FD6B
:10162000FFF700FD07A0FFF7CEFD4846FEF7A8FF35
:10163000FFF7C0FD206900F095F9DFE7000000200A
:10164000000C02405461736B20310000FEE7090773
:10165000090E002804DB00F1E02080F80014704738
:1016600000F00F0000F1E02080F8141D704702E048
:1016700008C8121F08C1002AFAD17047704700201D
:1016800001E001C1121F002AFBD170471FB5FFF70F
:101690007FF8FFF7B5FEFFF757FE4FF400635A10CF
:1016A000511048108DE80F0042010101144B1548FC
:1016B000FFF7BCFC00F04AF8134800F07FF8134C29
:1016C000114A0121A0601032084600F0F3F80E4ADA
:1016D000E06020320021012000F0ECF80A4A20618D
:1016E000483A00210A4800F075F9074A2060243A78
:1016F0000021084800F06EF9606000F041F8FEE754
:10170000000C0240000402407C360008000000206B
:10171000E91500088915000810B5EFF3058179B9BE
:10172000EFF3108111B9EFF3118119B1064909687E
:10173000022905D0002408B100F05EFF204610BD4C
:101740006FF00504FAE7000098000020EFF3058031
:1017500068B9EFF310820949086812B9EFF31182F2
:101760000AB1022803D028B14FF0FF3070476FF064
:101770000500704701200860002070479800002095
:1017800010B5EFF3058070B9EFF310820A490868CD
:1017900012B9EFF311820AB1022804D0012805D052
:1017A0004FF0FF3010BD6FF0050010BD0220086043
:1017B00000F0D2FF002010BD9800002070B5054653
:1017C0004FF00004EFF30580A0BBEFF3108010B9D9
:1017D000EFF3118018B11848006802282AD00DB123
:1017E000686800E00020C10701D0012600E0002663
:1017F00000071FD46DB1D5E9021021B1502819D3CB
:101800001EB1042002E020B114E0012001F0E4F850
:1018100005E00EB1042000E0012001F0D2F8040040
:1018200008D00DB1296800E0002100F083FE0EB160
:1018300044F00104204670BD98000020F8B50D4624
:101840000024211F4E1C002817D000BFEFF3058293
:1018500092B9EFF3108212B9EFF311821AB1134A61
:101860001268022A08D0294601F0A4FB01280ED0F4
:1018700065B16FF001040AE00DB10C4607E00021EC
:101880006A46009101F048FB012802D03446204608
:10189000F8BD00980028FAD005494FF08050086044
:1018A000BFF34F8FBFF36F8FF1E700009800002068
:1018B00004ED00E0F8B5144603460E464FF000056F
:1018C000EFF30580E8BBEFF3108010B9EFF3118060
:1018D00018B123480068022840D093B39E423DD8F7
:1018E0004CB1A0680028E06803D0502836D301200E
:1018F00002E008B132E00020012B05D010B31846F9
:10190000A26801F03EF820E040B1032000900022E0
:1019100011460120A36801F090F804E003220021A1
:10192000012001F066F8050018D086B100231A46A0
:10193000194601F0F9F8012809D0284600F00EFEFA
:1019400000250BE0184600F0FFFF050006D00CB1A3
:10195000216800E00021284600F0ECFD2846F8BD93
:101960009800002038B50024E51E002804D000BFF0
:10197000EFF30581B9B902E06FF0030411E0EFF372
:10198000108111B9EFF3118119B1104909680229C9
:1019900009D000231A46194601F0C6F8012800D0E4
:1019A0002C46204638BD00210091694601F0CAF955
:1019B0000128F5D100980028F3D005494FF0805058
:1019C0000860BFF34F8FBFF36F8FEAE798000020E6
:1019D00004ED00E02DE9FF414FEA01034FF000055F
:1019E000EFF30581039599BBEFF3108111B9EFF384
:1019F000118119B11F490968022938D040B38026E6
:101A0000182100244AB3176807B13C4697691FB1F3
:101A100039467F1E382F02D21779FF0703D00020E6
:101A200004B0BDE8F081576907B1BE08D2F808C01C
:101A3000BCF1000F0DD0D5685C2D18D312693AB1F6
:101A400037B18DE806103246214601F0D6FB0390EF
:101A50000DE0D7685FB912694AB903AACDE900124F
:101A6000B2B2214601F09CFB012800D003950398F7
:101A7000D6E70000980000202DE9F041134C0F46F6
:101A8000054666692068001D00F05AFC681C07D1F5
:101A900037B12168BDE8F0410D48091D00F0A0BC38
:101AA00020683544B5424560216805D2A068BDE88C
:101AB000F041091D00F07CBC6068091D00F078FC55
:101AC000206B854200D22563BDE8F08148000020EC
:101AD000F00500202DE9F041054600F08DFC2D4C6D
:101AE0002069401C206120682B4F10B1E06930B3A1
:101AF0002BE025602069012827D1002606EB86000F
:101B000007EB800000F046FC761C382EF6D3234805
:101B100000F040FC2148143000F03CFC1F48283005
:101B200000F038FC1D483C3000F034FC1B485030BD
:101B300000F030FC194860601430A06005E02068B7
:101B4000E96AC06A884200D82560E06A401CE06209
:101B50006864E86AA169884200D9A06100EB80004E
:101B600007EB8000291D00F03BFC00F065FCE069FC
:101B700000280CD02068E96AC06A884207D2084968
:101B80004FF080500860BFF34F8FBFF36F8FBDE8F9
:101B9000F08100004800002040010020A005002046
:101BA00004ED00E038B500F027FC104CA068C8B97F
:101BB0000F4800F0EFFB0E48143000F0EBFB0C4830
:101BC0002060143060600A4B00202833009003F13D
:101BD000500210210A2000F030FFA06010B105A1D2
:101BE00000F0A8FCBDE8384000F026BC84000020CE
:101BF00004060020546D72510000000030B4026CE5
:101C00000B46002A0BD0C1681144C1608468A14210
:101C100001D30168C16030BC1846FEF764BB30BC1C
:101C200070472DE9F041856B174604460026026C8B
:101C300082B1C7B1E068FEF756FBE168206C091A73
:101C4000E1602268914202D2A168081AE060022F86
:101C500016D017E02068A8B9A06801F071FB06460D
:101C60000020A0600EE06068FEF73DFB216C60681C
:101C700008446060A168884204D32068606001E085
:101C800005B16D1E6D1CA5633046BDE8F08110B531
:101C9000044690F8590058B101280CD002280FD002
:101CA000502080F31188BFF34F8FBFF36F8FFEE793
:101CB000206B00F0D5FB2046BDE8104000F0D0BB03
:101CC00010BD000010484FF47051420706D0C01DEF
:101CD0000D4920F00700411AC1F570510B4A00234D
:101CE0000144C2E900030839103A21F007011160EC
:101CF0004B600B600B1AC0E9001393604FF000407B
:101D00005360D06070470000D40D0020AC0000206C
:101D1000144E154CA6F29C474FF08058DFF84C90BB
:101D200012E000BF00F068FBF068C568281D00F0F5
:101D300007FB2069401E2061E068401EE06000F063
:101D40007BFB2846FFF7A3FFE0680028EAD138684C
:101D50000128F9D9C9F80080BFF34F8FBFF36F8F07
:101D6000F2E70000DC0500204800002004ED00E060
:101D7000002807D00021816001600B460A46C1603F
:101D800000F0D2BE7047000070B51D46049C51B1F2
:101D9000C4F80020C4E90F010121204600F080FEB4
:101DA00084F84C5070BD2460F4E700002DE9F05F2A
:101DB0008846DDE90B941546834691009A460A9EB3
:101DC000A522206BFEF7A1FA6FF00301206B01EB57
:101DD0008501084420F00707780707D0502080F3DA
:101DE0001188BFF34F8FBFF36F8FFEE70025B8F167
:101DF000000F0FD05FF00000221818F8001082F8D2
:101E0000341018F8001011B1401C1028F4D384F8D5
:101E1000435001E084F83450382E00D33726E66270
:101E2000C4E91365201D00F0C0FA04F1180000F0A9
:101E3000BCFA2461C6F138006462A061656584F86B
:101E4000585052465946384600F064FA2060B9F1BD
:101E5000000F01D0C9F80040BDE8F09F30B511492E
:101E600000E011460A688242FBD34B685C1884424A
:101E700003D1406818444860084643681C189442DF
:101E800009D1084C103C2468A24209D052681A4477
:101E900042600A6812680260814200D0086030BD6A
:101EA0000460F9E7AC00002070B5002441600B4DE0
:101EB0000061914206D8D11A8269914206D2011D71
:101EC000686807E09A4203D2994201D3012403E0F3
:101ED000011D286800F06CFA204670BD84000020C7
:101EE00010B5044600F088FAA06B28B15FF000043A
:101EF00000F0A2FA204610BD0124F9E730B589B000
:101F00003C4D6EE00498002806DADDE90601059AEA
:101F100090470498002864DB069C606910B1201D7E
:101F200000F00EFA03A800F0D7F8024604980A2839
:101F300057D2DFE800F00505052D334A05052D339E
:101F400094F8280040F0010084F828000599A06961
:101F5000059B01442046FFF7A7FF68B3216A20468E
:101F6000884794F8280040073BD50020009005984A
:101F7000A169002342181946204601F027FBD8B971
:101F8000502080F31188BFF34F8FBFF36F8FFEE7B0
:101F900014F8280F20F00100207022E094F82800A7
:101FA00040F0010084F828000598A06128B181184C
:101FB00013462046FFF778FF13E0502080F3118886
:101FC000BFF34F8FBFF36F8FFEE794F828008107B0
:101FD00003D4204600F044FA03E020F0010084F826
:101FE0002800002204A9A86800F0FAFE002889D180
:101FF00009B030BD840000202DE9FC410F460546A4
:1020000000F0EEFB01A800F067F80446019818B153
:1020100001F04AFABDE8FC81254EAFB17068006856
:10202000D0B30027291B3A46B06800F0C3FA01F08C
:102030003BFA0028EED11F494FF080500860BFF3F3
:102040004F8FBFF36F8FE5E7A542EBD801F02CFA75
:1020500030682746C068C468201D00F071F994F804
:102060002800410719D5A0692B4641193A46204658
:10207000FFF71AFFA8B100200346014600902A4648
:10208000204601F0A3FA60B9502080F31188BFF315
:102090004F8FBFF36F8FFEE707E020F0010084F859
:1020A0002800216A20468847B4E70127BAE70000E4
:1020B0008400002004ED00E006484168096829B169
:1020C0004168C968C9684968016370474FF0FF31CA
:1020D000FAE700004800002070B5054601F0C6F898
:1020E000064E04463069844203D200F009F801200C
:1020F00000E0002028602046346170BD840000208C
:10210000F8B5194D20E0C068C4680668201D00F0CD
:1021100017F9216A2046884794F82800400713D50C
:10212000A0693044B04206D924616060211D28684E
:1021300000F03EF908E000200346014600903246D8
:10214000204601F043FA38B1286801680029DAD145
:102150006968C5E90010F8BD502080F31188BFF30D
:102160004F8FBFF36F8FFEE7840000200848406860
:10217000401C4FF0500080F3118804D0BFF34F8F04
:10218000BFF36F8FFEE7BFF34F8FBFF36F8FFEE795
:10219000B4000020074C2068016841B1C0680021EC
:1021A000D0F80000FFF728FFFFF7A8FEF3E70121B2
:1021B0000020F7E7840000202DE9F041044600F0FC
:1021C0001BF994F9455004F1240609E0606A48B10E
:1021D000304601F031F908B100F03CFA6D1E6DB2E5
:1021E000002DF3DC4FF0FF3684F8456000F024F951
:1021F00000F002F994F9445004F1100709E0206955
:1022000048B1384601F018F908B100F023FA6D1E04
:102210006DB2002DF3DC84F84460BDE8F04100F0BD
:102220000BB900002DE9F0410546002700F0D8FA6F
:10223000314E306808B9FFF745FDF06805424BD1D3
:10224000C5B3083568070ED005F00700C0F10800D7
:102250000544680707D0502080F31188BFF34F8FE3
:10226000BFF36F8FFEE72DB37068854234D82248E4
:10227000103001460C6801E020460C466168A94216
:1022800002D221680029F7D131688C4224D0076836
:102290002168016060680837411B10290FD9601957
:1022A000420708D0502080F31188BFF34F8FBFF34F
:1022B0006F8FFEE710E041606560FFF7CFFD61685A
:1022C0007068401A7060B268904200D2B060F068E6
:1022D00001430020C4E9000101F0E6F8780707D0C7
:1022E000502080F31188BFF34F8FBFF36F8FFEE74D
:1022F0003846BDE8F08100009C00002004490868D1
:1023000018B10868026D521C026508687047000029
:102310004800002010B5031F4FF080741C601B1F85
:1023200021F001011960191F044B0B6014390A6078
:10233000091F6FF0020244380A6010BD6D210008C9
:10234000D0E9013201699A60D0E901235A604A68F4
:10235000824201D182684A60002202610868401E00
:102360000860086870470000034B036003F15C00DD
:1023700008608020106070471C070020044B036039
:1023800003F15C0008604FF480701060704700003B
:102390007809002000F108014FF0FF32C0E9011276
:1023A000C160016100210160704700210161704737
:1023B00030B50B685A1C02D000F1080202E0026935
:1023C00004E02246546825689D42FAD953684B6060
:1023D00099608A60516008610168491C016030BDE4
:1023E00042684A6093688B609368596091600861A5
:1023F0000168491C01607047502080F31188BFF3C9
:102400004F8FBFF36F8F0A494868401C486001280E
:102410000CD10848006810F0FF0F07D0502080F35F
:102420001188BFF34F8FBFF36F8FFEE77047000037
:10243000B400002004ED00E00849486828B1401EBF
:10244000486001D180F311887047502080F31188D3
:10245000BFF34F8FBFF36F8FFEE70000B400002083
:1024600070B5002827D0144DA0F108046168E86811
:10247000014207D1502080F31188BFF34F8FBFF383
:102480006F8FFEE722683AB1502080F31188BFF3C6
:102490004F8FBFF36F8FFEE78143616000F0A0F9BB
:1024A00060686968084468602046FFF7D7FCBDE8AB
:1024B000704000F0F9BF70BD9C0000204FF0E0209C
:1024C00000210161816105494FF47A720968B1FB0D
:1024D000F2F1491E4161072101617047440000206B
:1024E00010B5FDF7B9FE114910280ED300F1E02018
:1024F00090F8F0030A78904207D2502080F31188B8
:10250000BFF34F8FBFF36F8FFEE7094800688968FC
:1025100000F4E060884207D9502080F31188BFF3AF
:102520004F8FBFF36F8FFEE710BD0000B400002097
:102530000CED00E010B5084B002200BF53F832400C
:102540001CB1521C082AF9D310BD43F8321003EB1A
:10255000C201486010BD00000001002010B5040059
:102560000AD000F013F894F8460000280CD1204659
:10257000BDE81040FFF774BF502080F31188BFF30F
:102580004F8FBFF36F8FFEE710BD0000084A002198
:1025900002EBC1035B68834206D1002042F83100A0
:1025A00002EBC10148607047491C0829F0D370470D
:1025B0000001002070B515460E460446FFF71CFFCB
:1025C00094F944100020491C01D184F8440094F986
:1025D0004510491C01D184F84500FFF72DFFA06B81
:1025E00028B92A46314604F1240000F051F820466B
:1025F000BDE87040FFF7E0BD10B5020014D00F48F1
:10260000806B38B1502080F31188BFF34F8FBFF338
:102610006F8FFEE700F0E4F800211046FFF72CFA78
:1026200000F042FF002807D105494FF080500860B4
:10263000BFF34F8FBFF36F8F10BD00004800002025
:1026400004ED00E002498A6A02604969416070470E
:1026500048000020014901204862704748000020DE
:1026600010B50C4650B1094909681831FFF7A0FEB2
:102670002046BDE810400121FFF7FEB9502080F34D
:102680001188BFF34F8FBFF36F8FFEE74800002024
:1026900070B514460D4668B10A4909681831FFF74C
:1026A0009FFE0CB14FF0FF3521462846BDE8704033
:1026B000FFF7E2B9502080F31188BFF34F8FBFF3CB
:1026C0006F8FFEE74800002070B504003ED0226DF9
:1026D000A2B1E06C884200D30146E06A884235D05E
:1026E000012A33D11A4D2A6894420FD1502080F329
:1026F0001188BFF34F8FBFF36F8FFEE7502080F339
:102700001188BFF34F8FBFF36F8FFEE7E162A269BD
:10271000002A02DBC1F13801A1610E4E00EB8000FE
:10272000616906EB8000814210D1201DFFF708FE91
:10273000E06AA969884200D9A86100EB800006EB35
:102740008000211DBDE87040FFF74ABE70BD00004B
:10275000480000204001002030B587B000240394D9
:1027600005AA04A903A80494FFF7FEFDDDE903010F
:102770000094CDE90110002315A11748059A00F037
:102780003CFD164D002868631FD000F0EFFE0128C5
:1027900009D0401C19D1502080F31188BFF34F8F0E
:1027A000BFF36F8FFEE7502080F31188BFF34F8F88
:1027B000BFF36F8F4FF0FF3028630120E8616C6139
:1027C00007B0BDE8304000F045B807B030BD0000AC
:1027D00049444C4500000000111D0008480000203D
:1027E0000248816B491C816370470000480000204B
:1027F000164810B5816B11B10121416210BD002155
:1028000041628169124A01E0B9B1491E01EB8103BD
:1028100052F82330002BF7D001EB810302EB830247
:1028200002F1080453685B685360A34201D15B68FE
:102830005360DA680260816110BD502080F3118816
:10284000BFF34F8FBFF36F8FFEE7000048000020FB
:10285000400100201CB537480168374A914207D132
:10286000502080F31188BFF34F8FBFF36F8FFEE7C7
:1028700000683149491E884207D1502080F31188F1
:10288000BFF34F8FBFF36F8FFEE72C49087801909D
:10289000FF20087008788DF800009DF800009DF872
:1028A000002000F0F000904207D0502080F3118803
:1028B000BFF34F8FBFF36F8FFEE79DF80000204BF3
:1028C00000F0500018700720986005E09DF8002087
:1028D00052008DF80020401E9DF800201206F5D40D
:1028E0009860032807D0502080F31188BFF34F8FE2
:1028F000BFF36F8FFEE74FF4407098600198087047
:102900000C482030016841F470010160016841F019
:1029100070410160FFF7D2FD00205860FDF764FCB4
:102920000848016841F040410160FDF749FC002082
:102930001CBD000000ED00E071C20F4100E400E0AA
:10294000B400002034EF00E010B50C4648B18442DA
:102950000FD9502080F31188BFF34F8FBFF36F8FD3
:10296000FEE7502080F31188BFF34F8FBFF36F8FC6
:10297000FEE70222002100F03CF8002800D084632A
:1029800010BD38B50C4648B184420FD9502080F3B1
:102990001188BFF34F8FBFF36F8FFEE7502080F396
:1029A0001188BFF34F8FBFF36F8FFEE702211346ED
:1029B00000220091114600F040F8002800D0846306
:1029C00038BD10B502460021012000F012F804467F
:1029D000FFF7CEF9204610BD38B50B460022009017
:1029E0001146012000F029F80446FFF7C1F92046FE
:1029F00038BDF8B517460E46050014D0DEB105FB0C
:102A000006F05030FFF70EFC04000AD0002084F8D6
:102A1000460004F150023B46314628460094FFF739
:102A2000B3F92046F8BD502080F31188BFF34F8FD3
:102A3000BFF36F8FFEE70020E3E738B5049D18B1C0
:102A400053B1CAB181B120E0502080F31188BFF3A7
:102A50004F8FBFF36F8FFEE7502080F31188BFF3D5
:102A60004F8FBFF36F8FFEE7502080F31188BFF3C5
:102A70004F8FBFF36F8FFEE739B1502080F311887D
:102A8000BFF34F8FBFF36F8FFEE750241C46012327
:102A900084F846302B460094FFF776F9204638BD7F
:102AA00070B50D46040025D0FFF7A6FCD4E90F2031
:102AB000216802FB0011A1600021A163216861600F
:102AC0000A46D4E90F01401E00FB0121E1602146C6
:102AD0004FF0FF3001F8440F487004F110008DB141
:102AE000FFF758FC04F12400FFF754FCFFF7A4FCA7
:102AF000012070BD502080F31188BFF34F8FBFF3CA
:102B00006F8FFEE721690029F0D000F095FC0028C6
:102B1000ECD004494FF080500860BFF34F8FBFF3F3
:102B20006F8FE3E704ED00E02DE9FF4782B01D461B
:102B30008A464FF00008040003D0BAF1000F08D015
:102B400011E0502080F31188BFF34F8FBFF36F8FD8
:102B5000FEE7206C38B1502080F31188BFF34F8F0F
:102B6000BFF36F8FFEE7022D0AD1E06B012807D07B
:102B7000502080F31188BFF34F8FBFF36F8FFEE7B4
:102B800000F066FB3F4F4FF000094FF0805648B908
:102B9000049838B1502080F31188BFF34F8FBFF3F2
:102BA0006F8FFEE7FFF728FCA06BE16B884207D32D
:102BB000022D05D00498D0B1B8F1000F1AD01EE054
:102BC0002A4651462046FFF72CF8616A19B104F1F4
:102BD000240000F031FC20B13E60BFF34F8FBFF303
:102BE0006F8FFFF729FC012006B0BDE8F087FFF7E3
:102BF00023FC22E06846FFF725FD4FF00108FFF7B0
:102C00001BFCFFF7EDFDFFF7F7FB94F94400401CB8
:102C100001D184F8449094F94500401C01D184F816
:102C20004590FFF709FC04A9684600F07FFA30B12F
:102C30002046FFF7C1FA00F037FC0020D4E7FFF789
:102C4000DBFBA06BE16B884213D1FFF7F5FB04F1CE
:102C500010000499FFF704FD2046FFF7ADFA00F0DD
:102C600023FC00289ED13E60BFF34F8FBFF36F8FD0
:102C700098E7FFF7E1FB2046FFF79EFA00F014FC0F
:102C800090E7000004ED00E02DE9F0471F46904674
:102C90008946040003D0B9F1000F08D011E050209C
:102CA00080F31188BFF34F8FBFF36F8FFEE7206C67
:102CB00038B1502080F31188BFF34F8FBFF36F8F6F
:102CC000FEE7022F0AD1E06B012807D0502080F3E5
:102CD0001188BFF34F8FBFF36F8FFEE7FFF700FC44
:102CE0005020EFF3118680F31188BFF34F8FBFF3AD
:102CF0006F8FA06BE16B884206D3022F04D00020B7
:102D000086F31188BDE8F08794F945503A46494664
:102D10002046FEF786FF681C04D06D1C84F84550E1
:102D20000120EDE7606A0028FAD004F1240000F0E9
:102D300083FB0028F4D0B8F1000FF1D00121C8F8CE
:102D40000010EDE770B50E46040009D0206C78B194
:102D5000502080F31188BFF34F8FBFF36F8FFEE7D2
:102D6000502080F31188BFF34F8FBFF36F8FFEE7C2
:102D7000206848B9A06838B1502080F31188BFF3AB
:102D80004F8FBFF36F8FFEE7FFF7AAFB5020EFF3E3
:102D9000118580F31188BFF34F8FBFF36F8FA16B45
:102DA000E06B884218D994F94500491CA163411C85
:102DB00004D0401C84F8450001200EE0606A002821
:102DC000FAD004F1240000F037FB0028F4D0002EE4
:102DD000F2D001203060EFE7002085F3118870BD4C
:102DE0002DE9F747002683B08A46040003D0BAF1E4
:102DF000000F08D011E0502080F31188BFF34F8FEF
:102E0000BFF36F8FFEE7206C38B1502080F311883C
:102E1000BFF34F8FBFF36F8FFEE700F019FADFF8B3
:102E2000F4804FF000094FF0805748B9059838B149
:102E3000502080F31188BFF34F8FBFF36F8FFEE7F1
:102E4000FFF7DAFAA56BC5B151462046FEF7D6FE6C
:102E50006D1EA563206950B104F1100000F0ECFA7A
:102E600028B1C8F80070BFF34F8FBFF36F8FFFF723
:102E7000E3FA012006B0BDE8F087059808B11EB15D
:102E800006E0FFF7D9FA27E06846FFF7DBFB0126EB
:102E9000FFF7D2FAFFF7A4FCFFF7AEFA94F944006B
:102EA000401C01D184F8449094F94500401C01D1A4
:102EB00084F84590FFF7C0FA05A9684600F036F996
:102EC000002820460AD0FFF777F900F0EDFA2046F7
:102ED000FFF706F80028B3D00020CBE7FFF700F893
:102EE00090B104F124000599FFF7BAFB2046FFF7E3
:102EF00063F900F0D9FA0028A2D1C8F80070BFF336
:102F00004F8FBFF36F8F9BE72046FFF755F900F017
:102F1000CBFA95E704ED00E02DE9F04790468946AD
:102F2000040003D0B9F1000F08D011E0502080F365
:102F30001188BFF34F8FBFF36F8FFEE7206C38B15E
:102F4000502080F31188BFF34F8FBFF36F8FFEE7E0
:102F5000FFF7C6FA5020EFF3118680F31188BFF314
:102F60004F8FBFF36F8FA76BF7B194F94450494669
:102F70002046FEF743FE7F1EA763681C04D06D1C2D
:102F800084F84450012010E020690028FAD004F1B0
:102F9000100000F051FA0028F4D0B8F1000FF1D081
:102FA0000121C8F80010EDE7002086F31188BDE884
:102FB000F08700002DE9F343002683B00400354676
:102FC00009D0206C78B1502080F31188BFF34F8F67
:102FD000BFF36F8FFEE7502080F31188BFF34F8F50
:102FE000BFF36F8FFEE700F033F9DFF83C814FF05D
:102FF00000094FF0805748B9049838B1502080F349
:103000001188BFF34F8FBFF36F8FFEE7FFF7F4F91F
:10301000A06BC8B1401EA063206810B9FFF76EF91D
:10302000A060206950B104F1100000F005FA28B149
:10303000C8F80070BFF34F8FBFF36F8FFFF7FCF935
:10304000012005B0BDE8F083049808B166B10FE037
:103050003DB1502080F31188BFF34F8FBFF36F8FC6
:10306000FEE7FFF7E9F95DE06846FFF7EBFA0126B6
:10307000FFF7E2F9FFF7B4FBFFF7BEF994F944005C
:10308000401C01D184F8449094F94500401C01D1C2
:1030900084F84590FFF7D0F904A9684600F046F897
:1030A0000028204612D0FFF787F800F0FDF92046EF
:1030B000FEF716FF0028A9D09DB3FFF79DF9606ABF
:1030C00050B3206B0068C0F1380126E0FEF708FF1E
:1030D000E0B1206838B9FFF78FF9A06800F070F907
:1030E0000546FFF7A9F904F124000499FFF7B8FA9F
:1030F0002046FFF761F800F0D7F9002886D1C8F81C
:103100000070BFF34F8FBFF36F8F7FE72046FFF74D
:1031100053F800F0C9F979E70021A068FFF7D4FA65
:103120009FE7FFE700208CE704ED00E02DE9F04188
:103130000C46050011D0C4B1FFF75EF9174B5A6970
:103140006E682068911B471C17D02F689B6A9F42AE
:1031500019D0964217D8012410E0502080F311882E
:10316000BFF34F8FBFF36F8FFEE7502080F31188BE
:10317000BFF34F8FBFF36F8FFEE70024FFF75CF9BB
:103180002046BDE8F081884205D9401A20602846D3
:10319000FFF758FAF1E700202060DCE74800002044
:1031A0002DE9FF5F8346DDE90E87994616468A467C
:1031B0009000FFF737F805001CD05C20FFF732F8CD
:1031C000040014D00020256384F85900CDE90240A2
:1031D000CDE900874B46324651465846FEF7E6FD9C
:1031E0002046FEF777FC012004B0BDE8F09F28469A
:1031F000FFF736F94FF0FF30F6E7F0B585B0DDE9BF
:103200000B640A9DA6B1DCB15C27009726630226F9
:1032100084F85960002604AFCDE90246CDE9005795
:10322000FEF7C4FD2046FEF755FC049805B0F0BD3E
:10323000502080F31188BFF34F8FBFF36F8FFEE7ED
:10324000502080F31188BFF34F8FBFF36F8FFEE7DD
:103250000548C16919B1806B18B100207047012081
:103260007047022070470000480000200148406974
:1032700070470000480000202DE9F0412E4C002747
:10328000A06B40B1206A401C2062606A00B1012737
:103290003846BDE8F0816669761C666113D16068C6
:1032A000006838B1502080F31188BFF34F8FBFF30F
:1032B0006F8FFEE76068A1686160A060A06A401C33
:1032C000A062FEF7F9FE206BDFF87080864209D31A
:1032D0006068006880B16068C068C56868688642D8
:1032E0000DD220632068C06A00EB800158F82100ED
:1032F0000128CAD90127C8E74FF0FF30F1E7281DA0
:10330000FFF71EF8A86A18B105F11800FFF718F8C2
:10331000E86AA169884200D9A06100EB800108EB4E
:103320008100291DFFF75CF8E86A2168C96A8842B4
:10333000CED30127CCE70000480000204001002048
:1033400070B504004FF0000133D01B4D2868844253
:1033500007D0502080F31188BFF34F8FBFF36F8FDA
:10336000FEE7206D38B1401E2065E36CE26A9A42A8
:103370001FD040B11DE0502080F31188BFF34F8F64
:10338000BFF36F8FFEE7201DFEF7DAFFE06CE0620F
:10339000C0F13800A061E06AA969884200D9A8613B
:1033A000064900EB800001EB8000211DFFF718F8B3
:1033B0000121084670BD00004800002040010020A7
:1033C00070B504004FF000002BD0194DE16A2A6857
:1033D000D26A914226D2A069002804DB2868C06A1C
:1033E000C0F13800A061134E01EB8101606906EB6A
:1033F0008101884211D1201DFEF7A2FF2868C06A12
:10340000E062A969884200D9A86100EB800006EB60
:103410008000211DFEF7E4FF02E02868C06AE06238
:10342000012070BDE16C2A68D26A9142F8D370BD68
:10343000480000204001002070B5C068C46854B145
:1034400004F118000646FEF77BFF144DA86B50B13F
:103450003146134815E0502080F31188BFF34F8F99
:10346000BFF36F8FFEE7201DFEF76AFFE06AA969D0
:10347000884200D9A8610B4900EB800001EB800075
:10348000211DFEF7ADFFE06A2968C96A884202D9AA
:103490000120686270BD002070BD0000480000205F
:1034A000C8050020400100202DE9F0472C4D0024E4
:1034B0002746A86B38B1FEF79FFFA86B401EA86394
:1034C000A86B40B146E0502080F31188BFF34F8FC6
:1034D000BFF36F8FFEE72969224E0120D1B3A6F515
:1034E000916980463068E0B1F068C46804F1180062
:1034F000FEF726FF201DFEF723FFE06AA969884238
:1035000000D9A86100EB800109EB8100211DFEF7C5
:1035100067FFE06A2968C96A8842E3D3C5F8248056
:10352000E0E70CB1FEF7C8FD2C6A4CB14FEA080683
:10353000FFF7A2FE00B16E62641EF9D1002028627E
:10354000686A38B10849012738070860BFF34F8F10
:10355000BFF36F8FFEF770FF3846BDE8F0870000BD
:1035600048000020C805002004ED00E010B586B03A
:10357000FEF718FB114CA068B8B10020039004902E
:1035800005AA04A903A8FEF7F9FEDDE9032102203C
:103590008DE8070000230AA10B48059AFFF72DFECE
:1035A000E06010B106B0012010BD502080F31188FA
:1035B000BFF34F8FBFF36F8FFEE700008400002042
:1035C000546D722053766300952100082DE9FF4168
:1035D0001E46134602000A9D4FF0000016D0144C00
:1035E000A768002F0FD0CDE900130292062917DA41
:1035F000FFF72EFE02284FF000030FD0002269468D
:10360000A068FFF791FA04B0BDE8F081502080F384
:103610001188BFF34F8FBFF36F8FFEE72A46EEE7A7
:103620000023324669463846FFF72EFBEBE70000E1
:1036300084000020C43600080000000000000000E4
:103640000000000000000000000200001800000060
:103650000000000000000000EC3600080000000040
:103660000000000000000000000000000002000058
:10367000180000000000000000000000E036000814
:10368000000000000000000000000000D03600082C
:10369000000000000000000000000000F8360008F4
:1036A000000000000000000000000000000000001A
:1036B00000000000010203040607080900000000E2
:1036C000010203046D795461736B30310000000016
:1036D0006D7942696E61727953656D303100000019
:1036E0006D794D7574657830310000006D795461E5
:1036F000736B3032000000006D7942696E6172793F
:1037000053656D30320000002837000800000020AB
:10371000C00000006E160008E8370008C000002056
:10372000184D00007E160008000000000000000098
:10373000000000000000000000000000010F380041
:103740000000000000000000000000000000000079
:103750000000000000000000000000000000000069
:103760000100000010000000000000000024F40030
:103770000000000000000000000000000000000049
:103780000000000000000000000000000000000039
:103790000000000000000000000000000000000029
:1037A0000000000000000000000000000000000019
:1037B0000000000000000000000000000000000009
:1037C00000000000000000000000000000000000F9
:1037D00000000000000000000000000000000000E9
:0837E000AAAAAAAA0000000039
:040000050800018965
:00000001FF
